{
  "contractName": "KittyContract",
  "abi": [
    {
      "inputs": [
        {
          "internalType": "string",
          "name": "name_",
          "type": "string"
        },
        {
          "internalType": "string",
          "name": "symbol_",
          "type": "string"
        }
      ],
      "stateMutability": "nonpayable",
      "type": "constructor"
    },
    {
      "anonymous": false,
      "inputs": [
        {
          "indexed": true,
          "internalType": "address",
          "name": "owner",
          "type": "address"
        },
        {
          "indexed": true,
          "internalType": "address",
          "name": "approved",
          "type": "address"
        },
        {
          "indexed": true,
          "internalType": "uint256",
          "name": "tokenId",
          "type": "uint256"
        }
      ],
      "name": "Approval",
      "type": "event"
    },
    {
      "anonymous": false,
      "inputs": [
        {
          "indexed": false,
          "internalType": "address",
          "name": "owner",
          "type": "address"
        },
        {
          "indexed": false,
          "internalType": "uint256",
          "name": "kittenId",
          "type": "uint256"
        },
        {
          "indexed": false,
          "internalType": "uint256",
          "name": "mumId",
          "type": "uint256"
        },
        {
          "indexed": false,
          "internalType": "uint256",
          "name": "dadId",
          "type": "uint256"
        },
        {
          "indexed": false,
          "internalType": "uint256",
          "name": "genes",
          "type": "uint256"
        }
      ],
      "name": "Birth",
      "type": "event"
    },
    {
      "anonymous": false,
      "inputs": [
        {
          "indexed": true,
          "internalType": "address",
          "name": "from",
          "type": "address"
        },
        {
          "indexed": true,
          "internalType": "address",
          "name": "to",
          "type": "address"
        },
        {
          "indexed": true,
          "internalType": "uint256",
          "name": "tokenId",
          "type": "uint256"
        }
      ],
      "name": "Transfer",
      "type": "event"
    },
    {
      "inputs": [],
      "name": "CERATION_LIMIT_GEN0",
      "outputs": [
        {
          "internalType": "uint256",
          "name": "",
          "type": "uint256"
        }
      ],
      "stateMutability": "view",
      "type": "function",
      "constant": true
    },
    {
      "inputs": [],
      "name": "gen0Counter",
      "outputs": [
        {
          "internalType": "uint256",
          "name": "",
          "type": "uint256"
        }
      ],
      "stateMutability": "view",
      "type": "function",
      "constant": true
    },
    {
      "inputs": [
        {
          "internalType": "uint256",
          "name": "",
          "type": "uint256"
        }
      ],
      "name": "kittyIndexToOwner",
      "outputs": [
        {
          "internalType": "address",
          "name": "",
          "type": "address"
        }
      ],
      "stateMutability": "view",
      "type": "function",
      "constant": true
    },
    {
      "inputs": [],
      "name": "name",
      "outputs": [
        {
          "internalType": "string",
          "name": "tokenName",
          "type": "string"
        }
      ],
      "stateMutability": "view",
      "type": "function",
      "constant": true
    },
    {
      "inputs": [],
      "name": "symbol",
      "outputs": [
        {
          "internalType": "string",
          "name": "tokenSymbol",
          "type": "string"
        }
      ],
      "stateMutability": "view",
      "type": "function",
      "constant": true
    },
    {
      "inputs": [],
      "name": "totalSupply",
      "outputs": [
        {
          "internalType": "uint256",
          "name": "total",
          "type": "uint256"
        }
      ],
      "stateMutability": "view",
      "type": "function",
      "constant": true
    },
    {
      "inputs": [
        {
          "internalType": "address",
          "name": "owner",
          "type": "address"
        }
      ],
      "name": "getAllCatsFor",
      "outputs": [
        {
          "internalType": "uint256[]",
          "name": "cats",
          "type": "uint256[]"
        }
      ],
      "stateMutability": "view",
      "type": "function",
      "constant": true
    },
    {
      "inputs": [
        {
          "internalType": "address",
          "name": "owner",
          "type": "address"
        }
      ],
      "name": "balanceOf",
      "outputs": [
        {
          "internalType": "uint256",
          "name": "balance",
          "type": "uint256"
        }
      ],
      "stateMutability": "view",
      "type": "function",
      "constant": true
    },
    {
      "inputs": [
        {
          "internalType": "uint256",
          "name": "tokenId",
          "type": "uint256"
        }
      ],
      "name": "ownerOf",
      "outputs": [
        {
          "internalType": "address",
          "name": "owner",
          "type": "address"
        }
      ],
      "stateMutability": "view",
      "type": "function",
      "constant": true
    },
    {
      "inputs": [
        {
          "internalType": "uint256",
          "name": "tokenId",
          "type": "uint256"
        }
      ],
      "name": "getKitty",
      "outputs": [
        {
          "internalType": "uint256",
          "name": "",
          "type": "uint256"
        },
        {
          "internalType": "uint256",
          "name": "",
          "type": "uint256"
        },
        {
          "internalType": "uint256",
          "name": "",
          "type": "uint256"
        },
        {
          "internalType": "uint256",
          "name": "",
          "type": "uint256"
        },
        {
          "internalType": "uint256",
          "name": "",
          "type": "uint256"
        }
      ],
      "stateMutability": "view",
      "type": "function",
      "constant": true
    },
    {
      "inputs": [
        {
          "internalType": "uint256",
          "name": "_id",
          "type": "uint256"
        }
      ],
      "name": "getKittyFilip",
      "outputs": [
        {
          "internalType": "uint256",
          "name": "birthTime",
          "type": "uint256"
        },
        {
          "internalType": "uint256",
          "name": "mumId",
          "type": "uint256"
        },
        {
          "internalType": "uint256",
          "name": "dadId",
          "type": "uint256"
        },
        {
          "internalType": "uint256",
          "name": "generation",
          "type": "uint256"
        },
        {
          "internalType": "uint256",
          "name": "genes",
          "type": "uint256"
        }
      ],
      "stateMutability": "view",
      "type": "function",
      "constant": true
    },
    {
      "inputs": [
        {
          "internalType": "address",
          "name": "to",
          "type": "address"
        },
        {
          "internalType": "uint256",
          "name": "tokenId",
          "type": "uint256"
        }
      ],
      "name": "transfer",
      "outputs": [],
      "stateMutability": "nonpayable",
      "type": "function"
    },
    {
      "inputs": [
        {
          "internalType": "uint256",
          "name": "_genes",
          "type": "uint256"
        }
      ],
      "name": "createKittyGen0",
      "outputs": [
        {
          "internalType": "uint256",
          "name": "",
          "type": "uint256"
        }
      ],
      "stateMutability": "nonpayable",
      "type": "function"
    }
  ],
  "bytecode": "0x60806040523480156200001157600080fd5b5060405162001bef38038062001bef8339818101604052810190620000379190620001d3565b81600590805190602001906200004f929190620000b1565b50806006908051906020019062000068929190620000b1565b50336000806101000a81548173ffffffffffffffffffffffffffffffffffffffff021916908373ffffffffffffffffffffffffffffffffffffffff1602179055505050620003b6565b828054620000bf90620002db565b90600052602060002090601f016020900481019282620000e357600085556200012f565b82601f10620000fe57805160ff19168380011785556200012f565b828001600101855582156200012f579182015b828111156200012e57825182559160200191906001019062000111565b5b5090506200013e919062000142565b5090565b5b808211156200015d57600081600090555060010162000143565b5090565b60006200017862000172846200026f565b62000246565b9050828152602081018484840111156200019157600080fd5b6200019e848285620002a5565b509392505050565b600082601f830112620001b857600080fd5b8151620001ca84826020860162000161565b91505092915050565b60008060408385031215620001e757600080fd5b600083015167ffffffffffffffff8111156200020257600080fd5b6200021085828601620001a6565b925050602083015167ffffffffffffffff8111156200022e57600080fd5b6200023c85828601620001a6565b9150509250929050565b60006200025262000265565b905062000260828262000311565b919050565b6000604051905090565b600067ffffffffffffffff8211156200028d576200028c62000376565b5b6200029882620003a5565b9050602081019050919050565b60005b83811015620002c5578082015181840152602081019050620002a8565b83811115620002d5576000848401525b50505050565b60006002820490506001821680620002f457607f821691505b602082108114156200030b576200030a62000347565b5b50919050565b6200031c82620003a5565b810181811067ffffffffffffffff821117156200033e576200033d62000376565b5b80604052505050565b7f4e487b7100000000000000000000000000000000000000000000000000000000600052602260045260246000fd5b7f4e487b7100000000000000000000000000000000000000000000000000000000600052604160045260246000fd5b6000601f19601f8301169050919050565b61182980620003c66000396000f3fe608060405234801561001057600080fd5b50600436106100cf5760003560e01c806395d89b411161008c578063d5a776ca11610066578063d5a776ca1461023e578063de7880f51461026e578063e98b7f4d1461028c578063ef5e94aa146102c0576100cf565b806395d89b41146101d4578063a45f4bfc146101f2578063a9059cbb14610222576100cf565b806306fdde03146100d45780630dd1c2e8146100f257806318160ddd146101265780635a64aafa146101445780636352211e1461017457806370a08231146101a4575b600080fd5b6100dc6102de565b6040516100e99190611367565b60405180910390f35b61010c60048036038101906101079190611146565b610370565b60405161011d959493929190611424565b60405180910390f35b61012e610412565b60405161013b9190611409565b60405180910390f35b61015e600480360381019061015991906110e1565b61041f565b60405161016b9190611345565b60405180910390f35b61018e60048036038101906101899190611146565b6104b6565b60405161019b91906112d7565b60405180910390f35b6101be60048036038101906101b991906110e1565b610568565b6040516101cb9190611409565b60405180910390f35b6101dc6105b1565b6040516101e99190611367565b60405180910390f35b61020c60048036038101906102079190611146565b610643565b60405161021991906112d7565b60405180910390f35b61023c6004803603810190610237919061110a565b610676565b005b61025860048036038101906102539190611146565b6107d4565b6040516102659190611409565b60405180910390f35b6102766108a2565b6040516102839190611409565b60405180910390f35b6102a660048036038101906102a19190611146565b6108a7565b6040516102b7959493929190611424565b60405180910390f35b6102c861098f565b6040516102d59190611409565b60405180910390f35b6060600580546102ed906115c5565b80601f0160208091040260200160405190810160405280929190818152602001828054610319906115c5565b80156103665780601f1061033b57610100808354040283529160200191610366565b820191906000526020600020905b81548152906001019060200180831161034957829003601f168201915b5050505050905090565b600080600080600080600787815481106103b3577f4e487b7100000000000000000000000000000000000000000000000000000000600052603260045260246000fd5b906000526020600020906002020190508060000160009054906101000a900467ffffffffffffffff1667ffffffffffffffff1695508060000160109054906101000a900461ffff1661ffff169250806001015491505091939590929450565b6000600780549050905090565b6060600360008373ffffffffffffffffffffffffffffffffffffffff1673ffffffffffffffffffffffffffffffffffffffff1681526020019081526020016000208054806020026020016040519081016040528092919081815260200182805480156104aa57602002820191906000526020600020905b815481526020019060010190808311610496575b50505050509050919050565b6000806001600084815260200190815260200160002060009054906101000a900473ffffffffffffffffffffffffffffffffffffffff169050600073ffffffffffffffffffffffffffffffffffffffff168173ffffffffffffffffffffffffffffffffffffffff16141561055f576040517f08c379a0000000000000000000000000000000000000000000000000000000008152600401610556906113c9565b60405180910390fd5b80915050919050565b6000600260008373ffffffffffffffffffffffffffffffffffffffff1673ffffffffffffffffffffffffffffffffffffffff168152602001908152602001600020549050919050565b6060600680546105c0906115c5565b80601f01602080910402602001604051908101604052809291908181526020018280546105ec906115c5565b80156106395780601f1061060e57610100808354040283529160200191610639565b820191906000526020600020905b81548152906001019060200180831161061c57829003601f168201915b5050505050905090565b60016020528060005260406000206000915054906101000a900473ffffffffffffffffffffffffffffffffffffffff1681565b3073ffffffffffffffffffffffffffffffffffffffff168273ffffffffffffffffffffffffffffffffffffffff1614156106e5576040517f08c379a00000000000000000000000000000000000000000000000000000000081526004016106dc906113e9565b60405180910390fd5b600073ffffffffffffffffffffffffffffffffffffffff168273ffffffffffffffffffffffffffffffffffffffff161415610755576040517f08c379a000000000000000000000000000000000000000000000000000000000815260040161074c906113a9565b60405180910390fd5b61075f3382610995565b61076857600080fd5b61077460008383610a01565b808273ffffffffffffffffffffffffffffffffffffffff16600073ffffffffffffffffffffffffffffffffffffffff167fddf252ad1be2c89b69c2b068fc378daa952ba7f163c4a11628f55a4df523b3ef60405160405180910390a45050565b60008060009054906101000a900473ffffffffffffffffffffffffffffffffffffffff1673ffffffffffffffffffffffffffffffffffffffff163373ffffffffffffffffffffffffffffffffffffffff161461082f57600080fd5b600a60045410610874576040517f08c379a000000000000000000000000000000000000000000000000000000000815260040161086b90611389565b60405180910390fd5b60046000815480929190610887906115f7565b919050555061089b60008060008533610c29565b9050919050565b600a81565b600080600080600080600787815481106108ea577f4e487b7100000000000000000000000000000000000000000000000000000000600052603260045260246000fd5b906000526020600020906002020190508060000160009054906101000a900467ffffffffffffffff168160000160089054906101000a900463ffffffff1682600001600c9054906101000a900463ffffffff168360000160109054906101000a900461ffff1684600101548467ffffffffffffffff1694508363ffffffff1693508263ffffffff1692508161ffff169150955095509550955095505091939590929450565b60045481565b60008273ffffffffffffffffffffffffffffffffffffffff166001600084815260200190815260200160002060009054906101000a900473ffffffffffffffffffffffffffffffffffffffff1673ffffffffffffffffffffffffffffffffffffffff1614905092915050565b610a546001600260008573ffffffffffffffffffffffffffffffffffffffff1673ffffffffffffffffffffffffffffffffffffffff16815260200190815260200160002054610db690919063ffffffff16565b600260008473ffffffffffffffffffffffffffffffffffffffff1673ffffffffffffffffffffffffffffffffffffffff16815260200190815260200160002081905550816001600083815260200190815260200160002060006101000a81548173ffffffffffffffffffffffffffffffffffffffff021916908373ffffffffffffffffffffffffffffffffffffffff160217905550600360008373ffffffffffffffffffffffffffffffffffffffff1673ffffffffffffffffffffffffffffffffffffffff168152602001908152602001600020819080600181540180825580915050600190039060005260206000200160009091909190915055600073ffffffffffffffffffffffffffffffffffffffff168373ffffffffffffffffffffffffffffffffffffffff1614610c2457610bd66001600260008673ffffffffffffffffffffffffffffffffffffffff1673ffffffffffffffffffffffffffffffffffffffff16815260200190815260200160002054610dcc90919063ffffffff16565b600260008573ffffffffffffffffffffffffffffffffffffffff1673ffffffffffffffffffffffffffffffffffffffff16815260200190815260200160002081905550610c238382610de2565b5b505050565b6000806040518060a001604052804267ffffffffffffffff1681526020018863ffffffff1681526020018763ffffffff1681526020018661ffff168152602001858152509050600781908060018154018082558091505060019003906000526020600020906002020160009091909190915060008201518160000160006101000a81548167ffffffffffffffff021916908367ffffffffffffffff16021790555060208201518160000160086101000a81548163ffffffff021916908363ffffffff160217905550604082015181600001600c6101000a81548163ffffffff021916908363ffffffff16021790555060608201518160000160106101000a81548161ffff021916908361ffff16021790555060808201518160010155505060006001600780549050610d5b9190611522565b90507f0a5311bd2a6608f08a180df2ee7c5946819a649b204b554bb8e39825b2c50ad584828a8a89604051610d949594939291906112f2565b60405180910390a1610da860008583610a01565b809250505095945050505050565b60008183610dc491906114cc565b905092915050565b60008183610dda9190611522565b905092915050565b6000600360008473ffffffffffffffffffffffffffffffffffffffff1673ffffffffffffffffffffffffffffffffffffffff1681526020019081526020016000206001600360008673ffffffffffffffffffffffffffffffffffffffff1673ffffffffffffffffffffffffffffffffffffffff16815260200190815260200160002080549050610e729190611522565b81548110610ea9577f4e487b7100000000000000000000000000000000000000000000000000000000600052603260045260246000fd5b9060005260206000200154905060005b600360008573ffffffffffffffffffffffffffffffffffffffff1673ffffffffffffffffffffffffffffffffffffffff168152602001908152602001600020805490508110156110b15782600360008673ffffffffffffffffffffffffffffffffffffffff1673ffffffffffffffffffffffffffffffffffffffff1681526020019081526020016000208281548110610f7b577f4e487b7100000000000000000000000000000000000000000000000000000000600052603260045260246000fd5b9060005260206000200154141561109e5781600360008673ffffffffffffffffffffffffffffffffffffffff1673ffffffffffffffffffffffffffffffffffffffff1681526020019081526020016000208281548110611004577f4e487b7100000000000000000000000000000000000000000000000000000000600052603260045260246000fd5b9060005260206000200181905550600360008573ffffffffffffffffffffffffffffffffffffffff1673ffffffffffffffffffffffffffffffffffffffff168152602001908152602001600020805480611087577f4e487b7100000000000000000000000000000000000000000000000000000000600052603160045260246000fd5b600190038181906000526020600020016000905590555b80806110a9906115f7565b915050610eb9565b50505050565b6000813590506110c6816117c5565b92915050565b6000813590506110db816117dc565b92915050565b6000602082840312156110f357600080fd5b6000611101848285016110b7565b91505092915050565b6000806040838503121561111d57600080fd5b600061112b858286016110b7565b925050602061113c858286016110cc565b9150509250929050565b60006020828403121561115857600080fd5b6000611166848285016110cc565b91505092915050565b600061117b83836112b9565b60208301905092915050565b61119081611556565b82525050565b60006111a182611487565b6111ab81856114aa565b93506111b683611477565b8060005b838110156111e75781516111ce888261116f565b97506111d98361149d565b9250506001810190506111ba565b5085935050505092915050565b60006111ff82611492565b61120981856114bb565b9350611219818560208601611592565b6112228161169e565b840191505092915050565b600061123a602e836114bb565b9150611245826116af565b604082019050919050565b600061125d601d836114bb565b9150611268826116fe565b602082019050919050565b60006112806029836114bb565b915061128b82611727565b604082019050919050565b60006112a36021836114bb565b91506112ae82611776565b604082019050919050565b6112c281611588565b82525050565b6112d181611588565b82525050565b60006020820190506112ec6000830184611187565b92915050565b600060a0820190506113076000830188611187565b61131460208301876112c8565b61132160408301866112c8565b61132e60608301856112c8565b61133b60808301846112c8565b9695505050505050565b6000602082019050818103600083015261135f8184611196565b905092915050565b6000602082019050818103600083015261138181846111f4565b905092915050565b600060208201905081810360008301526113a28161122d565b9050919050565b600060208201905081810360008301526113c281611250565b9050919050565b600060208201905081810360008301526113e281611273565b9050919050565b6000602082019050818103600083015261140281611296565b9050919050565b600060208201905061141e60008301846112c8565b92915050565b600060a08201905061143960008301886112c8565b61144660208301876112c8565b61145360408301866112c8565b61146060608301856112c8565b61146d60808301846112c8565b9695505050505050565b6000819050602082019050919050565b600081519050919050565b600081519050919050565b6000602082019050919050565b600082825260208201905092915050565b600082825260208201905092915050565b60006114d782611588565b91506114e283611588565b9250827fffffffffffffffffffffffffffffffffffffffffffffffffffffffffffffffff0382111561151757611516611640565b5b828201905092915050565b600061152d82611588565b915061153883611588565b92508282101561154b5761154a611640565b5b828203905092915050565b600061156182611568565b9050919050565b600073ffffffffffffffffffffffffffffffffffffffff82169050919050565b6000819050919050565b60005b838110156115b0578082015181840152602081019050611595565b838111156115bf576000848401525b50505050565b600060028204905060018216806115dd57607f821691505b602082108114156115f1576115f061166f565b5b50919050565b600061160282611588565b91507fffffffffffffffffffffffffffffffffffffffffffffffffffffffffffffffff82141561163557611634611640565b5b600182019050919050565b7f4e487b7100000000000000000000000000000000000000000000000000000000600052601160045260246000fd5b7f4e487b7100000000000000000000000000000000000000000000000000000000600052602260045260246000fd5b6000601f19601f8301169050919050565b7f47656e20302073686f756c64206265206c657373207468616e2063726561746960008201527f6f6e206c696d69742067656e2030000000000000000000000000000000000000602082015250565b7f746f2063616e6e6f7420626520746865207a65726f2061646472657373000000600082015250565b7f4552433732313a206f776e657220717565727920666f72206e6f6e657869737460008201527f656e7420746f6b656e0000000000000000000000000000000000000000000000602082015250565b7f746f2063616e6e6f742062652074686520636f6e74726163742061646472657360008201527f7300000000000000000000000000000000000000000000000000000000000000602082015250565b6117ce81611556565b81146117d957600080fd5b50565b6117e581611588565b81146117f057600080fd5b5056fea26469706673582212205a163321136582a24817539e21b402299c53991c117890b2986dcfd57a87570664736f6c63430008040033",
  "immutableReferences": {},
  "source": "// SPDX-License-Identifier: MIT\r\npragma solidity ^0.8.4;\r\n\r\nimport \"./IERC721.sol\";\r\nimport \"./SafeMath.sol\";\r\nimport \"./Ownable.sol\";\r\n\r\n  contract KittyContract is IERC721,  Ownable {\r\n\r\n  using SafeMath for uint256;\r\n\r\n  mapping(uint256 => address) public kittyIndexToOwner; // an interger or index to an address\r\n  mapping(address => uint256) ownershipTokenCount; // an address to a number, a count\r\n  mapping(address => uint256[]) ownerToCats; //an address to a number of cats in an array\r\n\r\n  //mapping(uint256 => address) private _tokenApprovals;\r\n\r\n  event Birth(address owner, uint256 kittenId, uint256 mumId, uint256 dadId, uint256 genes);\r\n\r\n  // if made 'public constant', getter functions would be created\r\n  // automatically, thus there would be no need to create getter functions\r\n  // it's optional\r\n  uint256 public constant CERATION_LIMIT_GEN0 = 10; // max num of cats to be generated\r\n  uint256 public gen0Counter;\r\n \r\n\r\n  string private _name;\r\n  string private _symbol;\r\n\r\n  struct Kitty{\r\n  uint64 birthTime;\r\n  uint32 mumId;\r\n  uint32 dadId;\r\n  uint16 generation;\r\n  uint256 genes;\r\n}\r\n\r\nKitty[] kitties;\r\n\r\n  constructor(string memory name_, string memory symbol_) {\r\n    _name = name_;\r\n    _symbol = symbol_;\r\n    owner = msg.sender;\r\n}\r\n\r\n\r\n  function name() external view override returns (string memory tokenName) {\r\n    return _name;\r\n  }\r\n\r\n  function symbol() external view override returns (string memory tokenSymbol) {\r\n    return _symbol;\r\n  }\r\n\r\n  // could be external but externals can only be called from outside not within this contract\r\n  function totalSupply() public view override returns (uint256 total) {\r\n    return kitties.length;\r\n\r\n  }\r\n\r\n  function getAllCatsFor(address owner) external view returns (uint[] memory cats) {\r\n    return  ownerToCats[owner];\r\n  }\r\n\r\n\r\n  function balanceOf(address owner) external view override returns (uint256 balance ) {\r\n    return ownershipTokenCount[owner];\r\n  }\r\n\r\n  function ownerOf(uint256 tokenId) external view override returns (address owner) {\r\n    address _owner = kittyIndexToOwner[tokenId];\r\n    require(_owner != address(0), \"ERC721: owner query for nonexistent token\");\r\n\r\n    return _owner;\r\n  }\r\n  \r\n\r\n  function getKitty(uint256 tokenId) external view returns(uint256, uint256, uint256, uint256, uint256) {\r\n    Kitty storage returnKitty = kitties[tokenId]; // storage is a pointer, instead of using memory - - we do not make a local copy of it\r\n    return (returnKitty.birthTime,  returnKitty.mumId, returnKitty.dadId, returnKitty.generation, returnKitty.genes);\r\n  }\r\n\r\n   function getKittyFilip(uint256 _id) public view returns(\r\n     uint256 birthTime, \r\n     uint256 mumId, \r\n     uint256 dadId, \r\n     uint256 generation, \r\n     uint256 genes) {\r\n\r\n    Kitty storage kitty = kitties[_id];\r\n\r\n    birthTime = uint256(kitty.birthTime);\r\n    mumId = uint256(mumId);\r\n    dadId = uint256(dadId);\r\n    generation = uint256(kitty.generation);\r\n    genes = kitty.genes;\r\n  }\r\n\r\n  /*\r\n\r\n  function approve(address to, uint256 tokenId) public virtual {\r\n    address _owner = kittyIndexToOwner[tokenId];\r\n    require(to != _owner);\r\n    require(msg.sender == _owner);\r\n\r\n    _approve(to, tokenId);\r\n\r\n  }\r\n  */\r\n\r\n   // available function to outside calls - it only sends from msg.sender to recipients\r\n  function transfer(address to, uint256 tokenId) external override {\r\n    require(to != address(this), \"to cannot be the contract address\" );\r\n    require(to != address(0),\"to cannot be the zero address\" );\r\n    require(_owns(msg.sender, tokenId));\r\n\r\n    _transfer(address(0), to, tokenId);\r\n    \r\n    // might need to input _from instead of msg.sender to transfer from 0 address\r\n    emit Transfer(address(0), to, tokenId);\r\n     \r\n  }\r\n\r\n  function createKittyGen0(uint256 _genes) public onlyOwner returns(uint256){\r\n    require(gen0Counter < CERATION_LIMIT_GEN0, \"Gen 0 should be less than creation limit gen 0\");\r\n\r\n    gen0Counter++;\r\n\r\n    // mum, dad and generation is 0\r\n    // Gen0 have no owners; they are owned by the contract\r\n   return  _createKitty(0,0,0, _genes, msg.sender); // msg.sender could also be -- address(this) - we are giving cats to owner\r\n\r\n  }\r\n\r\n  // create cats by generation and by breeding\r\n  // retuns cat id\r\n  function _createKitty(\r\n    uint256 _mumId,\r\n    uint256 _dadId,\r\n    uint256 _generation, //1,2,3..etc\r\n    uint256 _genes, // recipient\r\n    address owner\r\n  ) private returns(uint256) {\r\n    Kitty memory newKitties = Kitty({ // create struct object\r\n      genes: _genes,\r\n      birthTime: uint64(block.timestamp),\r\n      mumId: uint32(_mumId),\r\n      dadId: uint32(_dadId),\r\n      generation: uint16(_generation)\r\n     });\r\n\r\n     kitties.push(newKitties); // returns the size of array - 1 for the first cat\r\n\r\n     uint256 newKittenId = kitties.length -1; // 0 -1\r\n\r\n     emit Birth(owner, newKittenId, _mumId, _dadId, _genes);\r\n\r\n     _transfer(address(0), owner, newKittenId); // birth of a cat from 0 (standard)\r\n\r\n    return newKittenId; //returns 256 bit integer\r\n\r\n  }\r\n\r\n\r\n \r\n\r\n  // must transfer from address 0\r\n  function _transfer(address from,  address to, uint256 tokenId) internal {\r\n    //_approve(address(0), tokenId);\r\n\r\n    ownershipTokenCount[to] = ownershipTokenCount[to].add(1);\r\n\r\n    kittyIndexToOwner[tokenId] = to;\r\n    ownerToCats[to].push(tokenId);\r\n   \r\n    // decrease token count from person A to person B\r\n    if (from != address(0)) {\r\n      ownershipTokenCount[from] = ownershipTokenCount[from].sub(1);\r\n        _removeTokenIdFromOwner(from, tokenId);\r\n    }\r\n     \r\n  }\r\n\r\n    function _removeTokenIdFromOwner(address owner, uint256 tokenId) internal {\r\n      uint256 lastId = ownerToCats[owner][ownerToCats[owner].length -1];\r\n      for (uint256 i = 0; i < ownerToCats[owner].length; i++) {\r\n        if (ownerToCats[owner][i] == tokenId) {\r\n            ownerToCats[owner][i] = lastId;\r\n            ownerToCats[owner].pop();\r\n        }\r\n\r\n      }\r\n\r\n  }\r\n\r\n/*\r\n  function _approve(address to, uint256 _tokenId) internal virtual {\r\n    address _owner = kittyIndexToOwner[_tokenId];\r\n    _tokenApprovals[_tokenId] = to;\r\n    emit Approval(_owner, to, _tokenId);\r\n\r\n  }\r\n  */\r\n  \r\n  function _owns(address _claimant, uint256 tokenId) internal view returns(bool) {\r\n    return kittyIndexToOwner[tokenId] == _claimant;\r\n  }\r\n\r\n}",
  "sourcePath": "C:/Users/benX/Documents/ethereum_course_advanced/cryptoCats/academy-kitties-template/contracts/cryptoCats.sol",
  "compiler": {
    "name": "solc",
    "version": "0.8.4+commit.c7e474f2.Emscripten.clang"
  },
  "schemaVersion": "3.3.4",
  "updatedAt": "2021-06-05T19:30:46.943Z",
  "networkType": "ethereum",
  "devdoc": {
    "kind": "dev",
    "methods": {
      "balanceOf(address)": {
        "details": "Returns the number of tokens in ``owner``'s account."
      },
      "ownerOf(uint256)": {
        "details": "Returns the owner of the `tokenId` token. Requirements: - `tokenId` must exist."
      }
    },
    "version": 1
  },
  "userdoc": {
    "kind": "user",
    "methods": {},
    "version": 1
  }
}